{
  "contractName": "Transactions",
  "abi": [
    {
      "anonymous": false,
      "inputs": [
        {
          "indexed": false,
          "internalType": "address",
          "name": "from",
          "type": "address"
        },
        {
          "indexed": false,
          "internalType": "address",
          "name": "to",
          "type": "address"
        },
        {
          "indexed": false,
          "internalType": "uint256",
          "name": "amount",
          "type": "uint256"
        },
        {
          "indexed": false,
          "internalType": "string",
          "name": "message",
          "type": "string"
        },
        {
          "indexed": false,
          "internalType": "uint256",
          "name": "timestamp",
          "type": "uint256"
        },
        {
          "indexed": false,
          "internalType": "string",
          "name": "keyword",
          "type": "string"
        }
      ],
      "name": "Transfer",
      "type": "event"
    },
    {
      "inputs": [
        {
          "internalType": "address payable",
          "name": "reciever",
          "type": "address"
        },
        {
          "internalType": "uint256",
          "name": "amount",
          "type": "uint256"
        },
        {
          "internalType": "string",
          "name": "message",
          "type": "string"
        },
        {
          "internalType": "string",
          "name": "keyword",
          "type": "string"
        }
      ],
      "name": "addToBlockchain",
      "outputs": [],
      "stateMutability": "nonpayable",
      "type": "function"
    },
    {
      "inputs": [],
      "name": "getAllTransactions",
      "outputs": [
        {
          "components": [
            {
              "internalType": "address",
              "name": "sender",
              "type": "address"
            },
            {
              "internalType": "address",
              "name": "reciever",
              "type": "address"
            },
            {
              "internalType": "uint256",
              "name": "amount",
              "type": "uint256"
            },
            {
              "internalType": "uint256",
              "name": "timestamp",
              "type": "uint256"
            },
            {
              "internalType": "string",
              "name": "message",
              "type": "string"
            },
            {
              "internalType": "string",
              "name": "keyword",
              "type": "string"
            }
          ],
          "internalType": "struct Transactions.TransferStruct[]",
          "name": "",
          "type": "tuple[]"
        }
      ],
      "stateMutability": "view",
      "type": "function",
      "constant": true
    },
    {
      "inputs": [],
      "name": "getTransactionCount",
      "outputs": [
        {
          "internalType": "uint256",
          "name": "",
          "type": "uint256"
        }
      ],
      "stateMutability": "view",
      "type": "function",
      "constant": true
    }
  ],
  "bytecode": "0x60806040526000805534801561001457600080fd5b50610c0d806100246000396000f3fe608060405234801561001057600080fd5b50600436106100415760003560e01c806327506f53146100465780632e7700f014610064578063cc2d7ead14610082575b600080fd5b61004e61009e565b60405161005b91906108b9565b60405180910390f35b61006c6102e1565b60405161007991906108db565b60405180910390f35b61009c600480360381019061009791906105e1565b6102ea565b005b60606001805480602002602001604051908101604052809291908181526020016000905b828210156102d857838290600052602060002090600602016040518060c00160405290816000820160009054906101000a900473ffffffffffffffffffffffffffffffffffffffff1673ffffffffffffffffffffffffffffffffffffffff1673ffffffffffffffffffffffffffffffffffffffff1681526020016001820160009054906101000a900473ffffffffffffffffffffffffffffffffffffffff1673ffffffffffffffffffffffffffffffffffffffff1673ffffffffffffffffffffffffffffffffffffffff16815260200160028201548152602001600382015481526020016004820180546101b590610ad9565b80601f01602080910402602001604051908101604052809291908181526020018280546101e190610ad9565b801561022e5780601f106102035761010080835404028352916020019161022e565b820191906000526020600020905b81548152906001019060200180831161021157829003601f168201915b5050505050815260200160058201805461024790610ad9565b80601f016020809104026020016040519081016040528092919081815260200182805461027390610ad9565b80156102c05780601f10610295576101008083540402835291602001916102c0565b820191906000526020600020905b8154815290600101906020018083116102a357829003601f168201915b505050505081525050815260200190600101906100c2565b50505050905090565b60008054905090565b60016000808282546102fc91906109bd565b9250508190555060016040518060c001604052803373ffffffffffffffffffffffffffffffffffffffff1681526020018673ffffffffffffffffffffffffffffffffffffffff16815260200185815260200142815260200184815260200183815250908060018154018082558091505060019003906000526020600020906006020160009091909190915060008201518160000160006101000a81548173ffffffffffffffffffffffffffffffffffffffff021916908373ffffffffffffffffffffffffffffffffffffffff16021790555060208201518160010160006101000a81548173ffffffffffffffffffffffffffffffffffffffff021916908373ffffffffffffffffffffffffffffffffffffffff160217905550604082015181600201556060820151816003015560808201518160040190805190602001906104459291906104ac565b5060a08201518160050190805190602001906104629291906104ac565b5050507f416cfa4330a4565f45c2fd2dd4826a83a37443aba2ce6f79477c7355afac35fa33858585428660405161049e9695949392919061084a565b60405180910390a150505050565b8280546104b890610ad9565b90600052602060002090601f0160209004810192826104da5760008555610521565b82601f106104f357805160ff1916838001178555610521565b82800160010185558215610521579182015b82811115610520578251825591602001919060010190610505565b5b50905061052e9190610532565b5090565b5b8082111561054b576000816000905550600101610533565b5090565b600061056261055d84610927565b6108f6565b90508281526020810184848401111561057a57600080fd5b610585848285610a97565b509392505050565b60008135905061059c81610ba9565b92915050565b600082601f8301126105b357600080fd5b81356105c384826020860161054f565b91505092915050565b6000813590506105db81610bc0565b92915050565b600080600080608085870312156105f757600080fd5b60006106058782880161058d565b9450506020610616878288016105cc565b935050604085013567ffffffffffffffff81111561063357600080fd5b61063f878288016105a2565b925050606085013567ffffffffffffffff81111561065c57600080fd5b610668878288016105a2565b91505092959194509250565b6000610680838361079c565b905092915050565b61069181610a61565b82525050565b6106a081610a13565b82525050565b6106af81610a13565b82525050565b60006106c082610967565b6106ca818561098a565b9350836020820285016106dc85610957565b8060005b8581101561071857848403895281516106f98582610674565b94506107048361097d565b925060208a019950506001810190506106e0565b50829750879550505050505092915050565b600061073582610972565b61073f818561099b565b935061074f818560208601610aa6565b61075881610b98565b840191505092915050565b600061076e82610972565b61077881856109ac565b9350610788818560208601610aa6565b61079181610b98565b840191505092915050565b600060c0830160008301516107b46000860182610697565b5060208301516107c76020860182610697565b5060408301516107da604086018261082c565b5060608301516107ed606086018261082c565b5060808301518482036080860152610805828261072a565b91505060a083015184820360a086015261081f828261072a565b9150508091505092915050565b61083581610a57565b82525050565b61084481610a57565b82525050565b600060c08201905061085f60008301896106a6565b61086c6020830188610688565b610879604083018761083b565b818103606083015261088b8186610763565b905061089a608083018561083b565b81810360a08301526108ac8184610763565b9050979650505050505050565b600060208201905081810360008301526108d381846106b5565b905092915050565b60006020820190506108f0600083018461083b565b92915050565b6000604051905081810181811067ffffffffffffffff8211171561091d5761091c610b69565b5b8060405250919050565b600067ffffffffffffffff82111561094257610941610b69565b5b601f19601f8301169050602081019050919050565b6000819050602082019050919050565b600081519050919050565b600081519050919050565b6000602082019050919050565b600082825260208201905092915050565b600082825260208201905092915050565b600082825260208201905092915050565b60006109c882610a57565b91506109d383610a57565b9250827fffffffffffffffffffffffffffffffffffffffffffffffffffffffffffffffff03821115610a0857610a07610b0b565b5b828201905092915050565b6000610a1e82610a37565b9050919050565b6000610a3082610a37565b9050919050565b600073ffffffffffffffffffffffffffffffffffffffff82169050919050565b6000819050919050565b6000610a6c82610a73565b9050919050565b6000610a7e82610a85565b9050919050565b6000610a9082610a37565b9050919050565b82818337600083830152505050565b60005b83811015610ac4578082015181840152602081019050610aa9565b83811115610ad3576000848401525b50505050565b60006002820490506001821680610af157607f821691505b60208210811415610b0557610b04610b3a565b5b50919050565b7f4e487b7100000000000000000000000000000000000000000000000000000000600052601160045260246000fd5b7f4e487b7100000000000000000000000000000000000000000000000000000000600052602260045260246000fd5b7f4e487b7100000000000000000000000000000000000000000000000000000000600052604160045260246000fd5b6000601f19601f8301169050919050565b610bb281610a25565b8114610bbd57600080fd5b50565b610bc981610a57565b8114610bd457600080fd5b5056fea264697066735822122027f78581b835527210b0f7046104ec8fc26da02a8d82ede5f957937dfa10668064736f6c63430008000033",
  "immutableReferences": {},
  "source": "//SPDX-License-Identifier: UNLICENSED\r\npragma solidity ^0.8.0;\r\n\r\ncontract Transactions{\r\n    uint transactionCount=0;\r\n    event Transfer(address from, address to,uint amount,string message,uint timestamp,string keyword );\r\n\r\n    struct TransferStruct{\r\n        address sender;\r\n        address reciever;\r\n        uint amount;\r\n        uint timestamp;\r\n        string message;\r\n        string keyword;\r\n    }\r\n\r\n    TransferStruct[] transactions;\r\n\r\n    function addToBlockchain(address payable reciever, uint amount,string memory message,string memory keyword) public{\r\n        transactionCount+=1;\r\n        transactions.push(TransferStruct(msg.sender,reciever,amount,block.timestamp,message,keyword));\r\n        emit Transfer(msg.sender, reciever, amount, message, block.timestamp, keyword);\r\n    }\r\n     function getAllTransactions() public view returns(TransferStruct[] memory){\r\n        return transactions;\r\n    }\r\n     function getTransactionCount() public view returns(uint){\r\n       return transactionCount;\r\n    }\r\n}\r\n\r\n",
  "sourcePath": "D:/Study/BlockChain/Projects/Krypto/contracts/Transactions.sol",
  "compiler": {
    "name": "solc",
    "version": "0.8.0+commit.c7dfd78e.Emscripten.clang"
  },
  "schemaVersion": "3.2.3",
  "updatedAt": "2022-03-14T15:28:37.258Z",
  "networkType": "ethereum",
  "devdoc": {
    "kind": "dev",
    "methods": {},
    "version": 1
  },
  "userdoc": {
    "kind": "user",
    "methods": {},
    "version": 1
  }
}